:020000040000FA
:100000000C9453000C9457020C9430020C947B0017
:100010000C947B000C947B000C947B000C947B0074
:100020000C947B000C947B000C947B000C947B0064
:100030000C947B000C947B000C947B000C947B0054
:100040000C94E6010C947B000C94A4020C947E02A8
:100050000C947B000C947B000C947B000C947B0034
:100060000C947B000C947B0000000000250028000D
:100070002B0000000000240027002A0004040404D0
:100080000404040402020202020203030303030342
:10009000010204081020408001020408102001021F
:1000A00004081020850411241FBECFEFD8E0DEBF66
:1000B000CDBF11E0A0E0B1E0E8E0FAE002C00590B9
:1000C0000D92A233B107D9F721E0A2E3B1E001C05C
:1000D0001D92A43EB207E1F710E0C3E5D0E004C0F2
:1000E0002197FE010E94FC04C235D107C9F70E9486
:1000F000D6020C9402050C94000080913801909176
:10010000390101969093390180933801089508953B
:10011000AF92BF92CF92DF92EF92FF920F931F9315
:10012000CF93DF936C017B018B01040F151FEB0153
:100130005E01AE18BF08C017D10759F06991D6010A
:10014000ED91FC910190F081E02DC6010995892B7C
:1001500079F7C501DF91CF911F910F91FF90EF903B
:10016000DF90CF90BF90AF900895FC01538D448DE8
:10017000252F30E0842F90E0821B930B541710F052
:10018000CF96089501970895FC01918D828D98175F
:1001900061F0A28DAE0FBF2FB11D5D968C91928D37
:1001A0009F5F9F73928F90E008958FEF9FEF089568
:1001B000FC01918D828D981731F0828DE80FF11D31
:1001C000858D90E008958FEF9FEF0895FC01918D4C
:1001D000228D892F90E0805C9F4F821B91098F7345
:1001E0009927089587E491E00E94E60021E0892B99
:1001F00009F420E0822F089580E090E0892B29F017
:100200000E94F20081110C9400000895FC01A48D5D
:10021000A80FB92FB11DA35ABF4F2C91848D90E028
:1002200001968F739927848FA689B7892C93A0890B
:10023000B1898C91837080648C93938D848D981395
:1002400006C00288F389E02D80818F7D8083089528
:10025000EF92FF920F931F93CF93DF93EC0181E016
:10026000888F9B8D8C8D98131AC0E889F9898081BD
:1002700085FF15C09FB7F894EE89FF896083E889F0
:10028000F98980818370806480839FBF81E090E0E2
:10029000DF91CF911F910F91FF90EF900895F62E6F
:1002A0000B8D10E00F5F1F4F0F731127E02E8C8D09
:1002B0008E110CC00FB607FCFACFE889F98980814E
:1002C00085FFF5CFCE010E940601F1CFEB8DEC0F3B
:1002D000FD2FF11DE35AFF4FF0829FB7F8940B8F6B
:1002E000EA89FB8980818062CFCFCF93DF93EC01D5
:1002F000888D8823B9F0AA89BB89E889F9898C910E
:1003000085FD03C0808186FD0DC00FB607FCF7CFC9
:100310008C9185FFF2CF808185FFEDCFCE010E94C9
:100320000601E9CFDF91CF910895FC0101900020F3
:10033000E9F73197AF01481B590BBC0187E491E005
:100340000C9488008F929F92AF92BF920F931F934D
:10035000CF93DF93CDB7DEB7A1970FB6F894DEBF8A
:100360000FBECDBF19A2423008F44AE08E010F5DE6
:100370001F4F842E912CB12CA12CA50194010E9419
:10038000C604E62FB901CA01EA30F4F4E05DD801F1
:10039000EE938D01232B242B252B79F790E080E021
:1003A000109719F0CD010E949501A1960FB6F8940F
:1003B000DEBF0FBECDBFDF91CF911F910F91BF90D8
:1003C000AF909F908F900895E95CE1CF1F920F92BC
:1003D0000FB60F9211242F933F938F939F93AF9358
:1003E000BF938091430190914401A0914501B09148
:1003F00046013091420123E0230F2D3758F5019635
:10040000A11DB11D209342018093430190934401AB
:10041000A0934501B093460180913E0190913F0128
:10042000A0914001B09141010196A11DB11D8093A1
:100430003E0190933F01A0934001B0934101BF91D1
:10044000AF919F918F913F912F910F900FBE0F9081
:100450001F90189526E8230F0296A11DB11DD2CF3B
:100460001F920F920FB60F9211242F933F934F9329
:100470005F936F937F938F939F93AF93BF93EF930C
:10048000FF93E0910201F09103010995FF91EF9133
:10049000BF91AF919F918F917F916F915F914F919C
:1004A0003F912F910F900FBE0F901F9018951F92A4
:1004B0000F920FB60F9211242F933F934F935F9398
:1004C0006F937F938F939F93AF93BF93EF93FF931C
:1004D000E0910001F09101010995FF91EF91BF9129
:1004E000AF919F918F917F916F915F914F913F91CC
:1004F0002F910F900FBE0F901F9018951F920F9283
:100500000FB60F9211242F933F934F935F936F93E6
:100510007F938F939F93AF93BF93EF93FF9387E462
:1005200091E00E940601FF91EF91BF91AF919F91E1
:100530008F917F916F915F914F913F912F910F908C
:100540000FBE0F901F9018951F920F920FB60F922B
:1005500011242F938F939F93EF93FF93E091570173
:10056000F09158018081E0915D01F0915E0182FD82
:100570001BC09081809160018F5F8F73209161011A
:10058000821741F0E0916001F0E0E95BFE4F958F4A
:1005900080936001FF91EF919F918F912F910F9028
:1005A0000FBE0F901F9018958081F4CF789484B57A
:1005B000826084BD84B5816084BD85B5826085BD5F
:1005C00085B5816085BD80916E00816080936E00ED
:1005D00010928100809181008260809381008091DF
:1005E0008100816080938100809180008160809390
:1005F00080008091B10084608093B1008091B00050
:1006000081608093B00080917A00846080937A004A
:1006100080917A00826080937A0080917A00816074
:1006200080937A0080917A00806880937A0010929B
:10063000C100E0915701F091580182E08083E09180
:100640005301F09154011082E0915501F09156014F
:100650008FEC808310925F01E0915B01F0915C016F
:1006600086E08083E0915901F0915A018081806198
:100670008083E0915901F0915A01808188608083E4
:10068000E0915901F0915A01808180688083E09166
:100690005901F0915A0180818F7D8083E2E9F0E079
:1006A0002491EEE7F0E084918823C1F090E0880F78
:1006B000991FFC01EE58FF4FC591D491FC01E859F8
:1006C000FF4FA591B4919FB7F8948881E22FE095F0
:1006D0008E2388838C91E823EC939FBF8DE790E075
:1006E0009093010180930001809169008C7F82606A
:1006F00080936900E89A10923901109238011092A3
:1007000037011092360110923A0110923B0110927B
:100710003C0110923D018AE0782E90E4692ECAE0F7
:10072000D0E000E010E027E8E22E20E0F22E3DE7E6
:10073000C32E30E0D32E86E191E00E949501BB24C8
:10074000B3942FB7F8948091430190914401A09104
:100750004501B09146012FBF40913A0150913B01B4
:1007600060913C0170913D01841B950BA60BB70B6A
:10077000883E9340A105B10508F482C0E898F09244
:100780000101E09200012FB7F8946091430170914C
:10079000440180914501909146012FBF20913A017B
:1007A00030913B0140913C0150913D01621B730B24
:1007B000840B950B209138013091390150E040E0D5
:1007C0000E94C604729EC001739E900D11249093E6
:1007D0003701809336012FB7F894809143019091AF
:1007E0004401A0914501B09146012FBF80933A0189
:1007F00090933B01A0933C01B0933D0110923901CD
:10080000109238016B2D70E090E080E04AE00E9489
:10081000A2018DE291E00E949501809134019091B6
:1008200035012091360130913701820F931F90934B
:1008300035018093340160927C0080917A0080645D
:1008400080937A0080917A0086FDFCCF2091780019
:10085000309179008091320190913301820F931F82
:100860009093330180933201B394D0920101C092EE
:100870000001809169008C7F826080936900E89A12
:100880008AE08B1508F05DCF80E391E00E9495012E
:1008900086E291E00E9495018091320190913301AE
:1008A000BE010E94B2044B01072E000CAA08BB082F
:1008B00077FF27C06DE287E491E00E942801662758
:1008C0007727CB01681979098A099B094AE00E94B8
:1008D000A2018FE291E00E949501109235011092E1
:1008E000340110923301109232010115110509F4FF
:1008F00022CF0E94F200882309F41DCF0E9400003D
:100900001ACF4AE0C501B401E2CFE7E4F1E0138277
:10091000128288EE93E0A0E0B0E084839583A68302
:10092000B78388E091E09183808385EC90E09587A0
:10093000848784EC90E09787868780EC90E0918BA9
:10094000808B81EC90E0938B828B82EC90E0958B96
:10095000848B86EC90E0978B868B118E128E138E93
:10096000148E089597FB072E16F4009407D077FD98
:1009700009D00E94E80407FC05D03EF490958195CB
:100980009F4F0895709561957F4F0895A1E21A2EAB
:10099000AA1BBB1BFD010DC0AA1FBB1FEE1FFF1F23
:1009A000A217B307E407F50720F0A21BB30BE40B73
:1009B000F50B661F771F881F991F1A9469F76095BA
:1009C0007095809590959B01AC01BD01CF01089574
:1009D000AA1BBB1B51E107C0AA1FBB1FA617B70765
:1009E00010F0A61BB70B881F991F5A95A9F7809581
:1009F0009095BC01CD010895EE0FFF1F0590F49175
:100A0000E02D0994F894FFCF8700870000000000D4
:100A100028018800B5007501E600C400D800E6B8DA
:100A2000ACE9878FE6ACA1E695B8206E3A00466F38
:0A0A3000726365203D20000D0A00EE
:107E0000112484B714BE81FFF0D085E080938100F7
:107E100082E08093C00088E18093C10086E0809377
:107E2000C20080E18093C4008EE0C9D0259A86E02C
:107E300020E33CEF91E0309385002093840096BBD3
:107E4000B09BFECF1D9AA8958150A9F7CC24DD24C4
:107E500088248394B5E0AB2EA1E19A2EF3E0BF2EE7
:107E6000A2D0813461F49FD0082FAFD0023811F036
:107E7000013811F484E001C083E08DD089C08234E0
:107E800011F484E103C0853419F485E0A6D080C0E4
:107E9000853579F488D0E82EFF2485D0082F10E0AE
:107EA000102F00270E291F29000F111F8ED06801E7
:107EB0006FC0863521F484E090D080E0DECF843638
:107EC00009F040C070D06FD0082F6DD080E0C81688
:107ED00080E7D80618F4F601B7BEE895C0E0D1E017
:107EE00062D089930C17E1F7F0E0CF16F0E7DF06D8
:107EF00018F0F601B7BEE89568D007B600FCFDCFD4
:107F0000A601A0E0B1E02C9130E011968C91119780
:107F100090E0982F8827822B932B1296FA010C0160
:107F200087BEE89511244E5F5F4FF1E0A038BF0790
:107F300051F7F601A7BEE89507B600FCFDCF97BE46
:107F4000E89526C08437B1F42ED02DD0F82E2BD052
:107F50003CD0F601EF2C8F010F5F1F4F84911BD097
:107F6000EA94F801C1F70894C11CD11CFA94CF0C13
:107F7000D11C0EC0853739F428D08EE10CD085E9AC
:107F80000AD08FE07ACF813511F488E018D01DD067
:107F900080E101D065CF982F8091C00085FFFCCF94
:107FA0009093C60008958091C00087FFFCCF809118
:107FB000C00084FD01C0A8958091C6000895E0E648
:107FC000F0E098E1908380830895EDDF803219F02E
:107FD00088E0F5DFFFCF84E1DECF1F93182FE3DFCA
:107FE0001150E9F7F2DF1F91089580E0E8DFEE27F6
:047FF000FF270994CA
:027FFE00040479
:00000001FF
